:020000040800F2
:10000000000B00200D0200082D0400082F0400083A
:1000100033040008370400083B0400080000000017
:100020000000000000000000000000003F04000885
:1000300041040008000000004304000845040008D3
:1000400027020008270200082702000827020008EC
:1000500027020008270200082702000827020008DC
:1000600027020008270200082702000827020008CC
:1000700039350008270200084B3500082702000820
:10008000270200085D350008270200082702000843
:10009000270200082702000827020008B1530008C1
:1000A000270200082702000827020008270200088C
:1000B0008B520008270200082702000827020008C8
:1000C000270200082702000827020008270200086C
:1000D00027020008033500081535000827350008F9
:1000E000EB53000827020008270200082702000837
:1000F000270200082702000827020008270200083C
:10010000270200082702000827020008270200082B
:10011000270200082702000827020008270200081B
:10012000270200082702000827020008270200080B
:1001300000F002F800F05AF80AA090E8000C82449F
:100140008344AAF10107DA4501D100F04FF8AFF27C
:10015000090EBAE80F0013F0010F18BFFB1A43F0A5
:10016000010318477C7500009C7500000A444FF09D
:10017000000C10F8013B13F0070408BF10F8014B06
:100180001D1108BF10F8015B641E05D010F8016B4B
:10019000641E01F8016BF9D113F0080F1EBF10F8AF
:1001A000014BAD1C0C1B09D16D1E58BF01F801CBD2
:1001B000FAD505E014F8016B01F8016B6D1EF9D555
:1001C0009142D6D37047000000230024002500266A
:1001D000103A28BF78C1FBD8520728BF30C148BFAA
:1001E0000B6070471FB51FBD10B510BD05F0C0FAFC
:1001F0001146FFF7F7FF02F0FDFF05F0DEFA03B44A
:10020000FFF7F2FF03BC05F0DFFA00000948804762
:1002100009480047FEE7FEE7FEE7FEE7FEE7FEE7E8
:10022000FEE7FEE7FEE7FEE704480549054A064B00
:10023000704700002B030008310100080005002072
:10024000000B002000070020000700200CB5002054
:10025000019000906C48006840F480306A49086062
:1002600000BF6948006800F4003000900198401C0D
:100270000190009818B90198B0F5A06FF1D16248CB
:10028000006800F4003010B10120009001E000206F
:1002900000900098012843D15C48006840F01000AD
:1002A0005A4908600846006820F0030008600846C4
:1002B000006840F0020008605348406852494860B6
:1002C0000846406848600846406840F480604860DE
:1002D0000846406820F47C1048600846406840F4B6
:1002E000E81048600846006840F08070086000BF71
:1002F0004548006800F000700028F9D04248406886
:1003000020F00300404948600846406840F0020081
:10031000486000BF3C48406800F00C000828F9D154
:100320000CBD10B5FFF792FF10BD10B53648006840
:1003300040F00100344908600846406834490840EC
:100340003149486008460068324908402E49086033
:100350000846006820F4802008600846406820F4C1
:10036000FE0048604FF41F008860FFF7DAFF4FF08F
:1003700000602949086010BD10B50021002000224E
:10038000214B5B6803F00C0121B1042906D0082938
:1003900028D107E0214B224C236027E01F4B204C43
:1003A000236023E0184B5B6803F47010164B5B6806
:1003B00003F48032022303EB904022B9194B4343EC
:1003C000174C23600DE0104B5B6803F4003323B13E
:1003D000144B4343124C236003E0104B4343104C37
:1003E000236003E00D4B0E4C236000BF00BF064BA3
:1003F0005B68C3F303130C4CE15C094B1B68CB40F7
:10040000074C236010BD0000001002400020024095
:100410000000FFF8FFFFF6FE08ED00E000127A0092
:100420000000002000093D0004000020704700BFCC
:10043000FEE700BFFEE700BFFEE700BFFEE7704734
:10044000704770477047000001684FF6FE72114018
:1004500001600021016041608160C1608D49884276
:1004600008D18C490839496841F00F01894A083A96
:1004700051608AE087491431884208D1854908399A
:10048000496841F0F001834A083A51607DE08149B2
:100490002831884208D17F490839496841F47061A0
:1004A0007C4A083A516070E07A493C31884208D170
:1004B00078490839496841F47041764A083A5160F0
:1004C00063E074495031884208D17249083949685B
:1004D00041F470216F4A083A516056E06D49643129
:1004E000884208D16B490839496841F47001694A6A
:1004F000083A516049E067497831884208D1654936
:100500000839496841F07061624A083A51603CE03C
:100510006149884206D1011F096841F00F01021F9D
:10052000116032E05C491431884208D15A49091FF0
:10053000096841F0F001584A121F116025E0564940
:100540002831884208D15449091F096841F4706173
:10055000514A121F116018E04F493C31884208D1BE
:100560004D49091F096841F470414B4A121F11603F
:100570000BE049495031884207D14749091F0968B2
:1005800041F47021444A121F1160704710B50022D7
:10059000026847F6F0739A430C6A8B6823430C6930
:1005A00023434C6923438C692343CC6923434C6A1E
:1005B00023438C6A23431A430260CB6843600B6871
:1005C00083604B68C36010BD0021016041608160A1
:1005D000C160016141618161C16101624162816209
:1005E000704721B1026842F00102026004E0026833
:1005F0004FF6FE731A40026070471AB103680B434E
:10060000036002E003688B430360704741607047FA
:100610000146486880B2704701460020002201F080
:1006200080531BB11C4B083B1A6802E0194B083B76
:100630001A6802EA01030BB1012000E000207047B4
:1006400000F0805119B11449091F086002E01149F6
:1006500008394860704701460020002201F08053AD
:100660001BB10D4B083B1A6802E00A4B083B1A68A5
:1006700002EA01030BB1012000E00020704700F006
:10068000805119B10449091F086002E00149083985
:1006900048607047080002400804024010B5044654
:1006A000CC48844208D10121042000F02DFB002118
:1006B000042000F029FB46E0C748844208D101210C
:1006C000082000F021FB0021082000F01DFB3AE08B
:1006D000C248844208D10121102000F015FB0021FE
:1006E000102000F011FB2EE0BD48844208D101210A
:1006F000202000F009FB0021202000F005FB22E073
:10070000B848844208D10121402000F0FDFA0021C0
:10071000402000F0F9FA16E0B348844208D10121E4
:10072000802000F0F1FA0021802000F0EDFA0AE0CC
:10073000AE48844207D10121801500F0E5FA00217E
:10074000A01500F0E1FA10BD10B50121084600F037
:10075000DBFA0021012000F0D7FA10BD2DE9F041AD
:10076000024600250026002000230024002791F8DF
:1007700003C00CF00F0591F803C00CF0100CBCF195
:10078000000F03D091F802C04CEA050591F800C0B3
:10079000BCF1000F31D0146800202BE04FF0010CA9
:1007A0000CFA00F3B1F800C00CEA03069E4220D117
:1007B00083004FF00F0C0CFA03F7BC4305FA03FC5F
:1007C0004CEA040491F803C0BCF1280F06D14FF0A5
:1007D000010C0CFA00FCC2F814C00AE091F803C046
:1007E000BCF1480F05D14FF0010C0CFA00FCC2F827
:1007F00010C0401C0828D1D31460B1F800C0BCF16F
:10080000FF0F34DD546800202EE000F1080C4FF09B
:10081000010808FA0CF3B1F800C00CEA03069E4286
:1008200021D183004FF00F0C0CFA03F7BC4305FAFB
:1008300003FC4CEA040491F803C0BCF1280F05D175
:1008400000F1080C08FA0CF8C2F8148091F803C003
:10085000BCF1480F07D100F1080C4FF0010808FA6D
:100860000CF8C2F81080401C0828CED35460BDE8B4
:10087000F0814FF6FF710180022181700421C17067
:1008800070470246002093680B400BB1012000E046
:10089000002070470146886880B2704702460020F9
:1008A000D3680B400BB1012000E0002070470146E7
:1008B000C86880B2704701617047416170470AB1F2
:1008C000016100E041617047C16070474FF48032C0
:1008D0000A4382618161826182698269704702464E
:1008E0000020434B18684FF68073184040EA02100E
:1008F00008433F4B186070473E49C8617047F0B5E8
:100900000A46002300240021002500F00046B6F12D
:10091000004F02D1364EF16901E0354E7168C0F3E7
:10092000034583B200F44016B6F5401F08D121F00C
:1009300070612F4E766826F070662D4F7E6012E053
:1009400000F48016B6F5801F06D1032606FA05F4DA
:10095000A14341F0706106E0460D360103FA06F648
:10096000B14341F0706122B1460D360103FA06F63B
:10097000314300F00046B6F1004F02D11C4EF16148
:1009800001E01B4E7160F0BD30B500228B071C0FDB
:100990000F2303FA04F2164B08338C1053F824305B
:1009A0009343134C08348D1044F8253023468C10A3
:1009B00053F824308C07240F00FA04F423430C4C22
:1009C00008348D1044F8253030BD0A49DC31086008
:1009D0007047000000080140000C01400010014079
:1009E0000014014000180140001C0140002001409B
:1009F0000000014000002042DF48006840F0010094
:100A0000DD49086008464068DC490840DA4948602A
:100A100008460068DA490840D74908600846006877
:100A200020F4802008600846406820F4FE004860FA
:100A30004FF41F0088607047CF49096821F4803166
:100A4000CD4A11601146096821F480211160B0F58A
:100A5000803F03D0B0F5802F0ED106E0C64909686B
:100A600041F48031C44A116007E0C349096841F488
:100A7000A021C14A116000E000BF00BF704710B55F
:100A800001460022002300204A11012A02D1BA4C5B
:100A9000236806E0022A02D1B74C236A01E0B64C73
:100AA000636A01F01F02012494401C400CB1012034
:100AB00000E0002010BD38B5002000900024002583
:100AC00000BF3120FFF7DBFF05460098401C009077
:100AD0000098B0F5A06F01D0002DF2D03120FFF7C3
:100AE000CEFF08B1012400E00024204638BD0146B5
:100AF0000020A14A106820F0F80040EAC100106010
:100B00007047A04908607047024600209A4B586819
:100B100020F47C1042EA01031843974B5860704759
:100B200098490866704701460020934A506820F0B3
:100B300003000843506070478F48406800F00C0085
:100B40007047014600208C4A506820F0F0000843AE
:100B50005060704701460020874A506820F4E060EA
:100B600008435060704701460020834A506820F4D3
:100B7000605040EAC1005060704729B17E4A527A05
:100B800002437D4B5A7204E07B4A527A82437A4B8D
:100B90005A7270477B49D83108607047014600207F
:100BA000754A506820F44040084350607047002167
:100BB000714A20321170704A82F82010012802D048
:100BC00004280AD104E001216B4A2032117005E0AB
:100BD0000521694A2032117000E000BF00BF704754
:100BE0006949086070476449096A0143624A1162B1
:100BF0007047654944390860704730B500210022CC
:100C0000002400235C4D6D6805F00C0121B104291E
:100C100005D0082923D105E05C4D056022E05B4D3D
:100C200005601FE0544D6D6805F47012524D6D68FB
:100C300005F48034022505EB92421CB9544D55430E
:100C400005600BE04C4D6D6805F400351DB1504D4D
:100C50005543056002E04D4D5543056002E04B4DA4
:100C6000056000BF00BF444D6D6805F0F001090943
:100C7000484D6B5C0568DD4045603F4D6D6805F48F
:100C8000E061090A434D6B5C4568DD4085603A4D83
:100C90006D6805F46051C90A3E4D6B5C4568DD40E6
:100CA000C560354D6D6805F44041890B3A4D6B5C6C
:100CB000C568B5FBF3F5056130BD29B12E4A52690F
:100CC00002432D4B5A6104E02B4A526982432A4B5E
:100CD0005A61704729B1284A92690243264B9A61AA
:100CE00004E0254A92698243234B9A61704729B1F7
:100CF000214AD2690243204BDA6104E01E4AD269DC
:100D000082431D4BDA61704729B11B4AD268024306
:100D1000194BDA6004E0184AD2688243164BDA6055
:100D2000704729B1144A12690243134B1A6104E057
:100D3000114A12698243104B1A61704712494039B7
:100D4000086070470F49C86470470B49C871704705
:100D50000948406A40F08070074948627047014680
:100D60000020054A92680A400AB1012000E00020F4
:100D70007047014988727047001002400000FFF878
:100D8000FFFFF6FE000042428004424200127A0059
:100D900000093D00140000202400002010B5044686
:100DA000FE48844208D10121C014FFF7ADFF0021A5
:100DB000E014FFF7A9FFC4E0B4F1804F08D101218E
:100DC0000846FFF7AEFF00210120FFF7AAFFB8E0B9
:100DD000F348844208D101210220FFF7A2FF00213D
:100DE0000220FFF79EFFACE0EE48844208D10121CB
:100DF0000420FFF796FF00210420FFF792FFA0E0F8
:100E0000E948844208D101210820FFF78AFF002128
:100E10000820FFF786FF94E0E448844208D10121CE
:100E20001020FFF77EFF00211020FFF77AFF88E0F7
:100E3000DF48844208D101212020FFF772FF002102
:100E40002020FFF76EFF7CE0DA48844208D10121C0
:100E50004014FFF759FF00216014FFF755FF70E0C1
:100E6000D548844209D10121C804FFF74DFF002174
:100E70004FF40020FFF748FF63E0D048844209D1D7
:100E800001210805FFF740FF00214FF48010FFF714
:100E90003BFF56E0CA48844209D101214805FFF7CB
:100EA00033FF00214FF40010FFF72EFF49E0C54843
:100EB000844208D101214020FFF733FF0021402068
:100EC000FFF72FFF3DE0C048844208D10121802078
:100ED000FFF727FF00218020FFF723FF31E0BB4809
:100EE000844208D101218015FFF71BFF0021A015C6
:100EF000FFF717FF25E0B648844209D10121080415
:100F0000FFF702FF00214FF48030FFF7FDFE18E0ED
:100F1000B048844209D101214804FFF7F5FE0021C1
:100F20004FF40030FFF7F0FE0BE0AB48844208D1ED
:100F300001218804FFF7E8FE00214FF48020FFF72D
:100F4000E3FE10BD00220288944B98420ED0994BCC
:100F500098420BD0B0F1804F08D0914B984205D009
:100F6000904B984202D0904B984204D14FF68F7329
:100F70001A404B881A438D4B984207D08C4B9842AD
:100F800004D04FF6FF431A40CB881A4302808B8867
:100F900083850B880385814B98420BD0854B984203
:100FA00008D08B4B984205D08A4B984202D08A4B8E
:100FB000984201D10B7A038601238382704770B572
:100FC000002400220023058C4FF6FE763540058470
:100FD000028C8388048B4FF68F752C40B51E2C40F5
:100FE0000D882C43751E2A400D892A434D882A43BB
:100FF0006A4DA8420BD06F4DA84208D0744DA8424C
:1010000005D0744DA84202D0734DA84213D14FF6BB
:10101000F7752A404D892A434FF6FB752A408D8883
:101020002A434FF6FF652B404FF6FF552B408D8925
:101030002B43CD892B4383800483CD88858602840E
:1010400070BD70B5002400220023058C4FF6EF76AA
:1010500035400584028C8388048B48F6FF752C404C
:101060004FF6FF452C400D884FF6FF7606EA052522
:101070002C434FF6DF752A400D8906EA05152A43F1
:101080004D8806EA05152A43444DA84202D0494D31
:10109000A8421DD14FF67F752A404D894FF6FF7645
:1010A00006EA05152A434FF6BF752A408D8806EAE1
:1010B00005152A434FF6FF352B404FF2FF752B40A5
:1010C0008D8906EA85052B43CD8906EA85052B43E4
:1010D00083800483CD880587028470BD70B50024A9
:1010E00000220023058C4FF6FF6635400584028CF4
:1010F0008388848B4FF68F752C404FF6FC752C40FF
:101100000D882C434FF6FF552A400D894FF6FF7688
:1011100006EA05252A434D8806EA05252A431F4D80
:10112000A84202D0234DA8421DD14FF2FF752A409C
:101130004D894FF6FF7606EA05252A434FF6FF351F
:101140002A408D8806EA05252A434EF6FF752B4076
:101150004DF6FF752B408D8906EA05152B43CD8989
:1011600006EA05152B4383808483CD888587028416
:1011700070BD70B5002200230024058C4EF6FF766A
:1011800035400584038C8488828B48F6FF752A409D
:101190004FF6FF452A400D8820E00000002C01405A
:1011A0000004004000080040000C00400010004017
:1011B0000014004000340140004C01400050014048
:1011C0000054014000180040001C00400020004076
:1011D0000040014000440140004801404FF6FF76C6
:1011E00006EA05252A434DF6FF752B400D8906EAD0
:1011F00005352B434D8806EA05352B43FA4DA842A9
:1012000002D0FA4DA84208D14BF6FF752C408D89CB
:101210004FF6FF7606EA85152C4384808283CD88BD
:10122000A0F84050038470BD828B4FF2FF331A4008
:101230008283828B4FF6FF7303EA01231A43828372
:101240007047F0B50C461546002200210026078C99
:101250004EF6FF7C07EA0C070784828B018C4FF661
:10126000FF7707EA043640F6FF473A404FF6FF772C
:1012700007EA05273A434FF6FF7707EA03373A4371
:10128000D94FB8420ED0D94FB8420BD0B0F1804FF1
:1012900008D0D74FB84205D0D64FB84202D0D64F6B
:1012A000B84206D14DF6FF77394046F480573943AE
:1012B00005E047F6FF57394044F4805739438283AD
:1012C0000184F0BD828B4FF6F3731A408283828BC8
:1012D0000A4382837047F0B50C4615460022002170
:1012E0000026078C4FF6FF6C07EA0C070784828BF9
:1012F000018C4FF6FF7707EA04264FF60C773A4049
:101300004FF6FF7707EA03172F433A43B64FB84229
:101310000ED0B64FB8420BD0B0F1804F08D0B44FCA
:10132000B84205D0B34FB84202D0B34FB84206D14D
:101330004FF6FF57394046F48077394305E04FF2C6
:10134000FF57394044F48077394382830184F0BDEC
:10135000028B4FF2FF331A400283028B4FF6FF736A
:1013600003EA01231A4302837047F0B50C46154681
:10137000002200210026078C4FF6EF7C07EA0C07BD
:101380000784028B018C4FF6FF7707EA041640F6BC
:10139000FF473A404FF6FF7707EA03373A434FF6E5
:1013A000FF7707EA05273A438F4FB8420ED08F4F99
:1013B000B8420BD0B0F1804F08D08D4FB84205D065
:1013C0008C4FB84202D08C4FB84206D14FF6DF772F
:1013D000394046F01007394305E04FF65F77394052
:1013E00044F01007394302830184F0BD028B4FF6AD
:1013F000F3731A400283028B0A4302837047F0B5ED
:101400000C46154600220021068C4FF6FE773E4022
:101410000684028B018C4FF60C7632407E1C06EA65
:1014200003162E433243704EB0420ED06F4EB04280
:101430000BD0B0F1804F08D06D4EB04205D06D4E4C
:10144000B04202D06C4EB04206D14FF6FD7631402C
:1014500044F00106314305E04FF6F576314044F0A3
:101460000106314302830184F0BD70B505460C4688
:101470005D4885420ED05D4885420BD0B5F1804F66
:1014800008D05B48854205D05A48854202D05A4868
:10149000854200D100E000BF208850B92389A2888E
:1014A00061882846FFF7ABFFE1882846FFF79EFFDB
:1014B00025E0208804280AD12389A288618828464B
:1014C000FFF753FFE1882846FFF742FF17E0208827
:1014D00008280AD12389A28861882846FFF7FBFEE5
:1014E000E1882846FFF7EEFE09E02389A28861889B
:1014F0002846FFF7A6FEE1882846FFF795FE70BD57
:101500002DE9F04105460C4600260127608808B900
:10151000022600E00026A088012801D1022700E071
:1015200001272088A0B92389A28861882846FFF76F
:1015300066FFE1882846FFF759FF23893A4631467E
:101540002846FFF712FFE1882846FFF701FF13E066
:101550002389A28861882846FFF707FFE18828468B
:10156000FFF7F6FE23893A4631462846FFF747FF44
:10157000E1882846FFF73AFFBDE8F0810A884B88EA
:101580001A438B881A43CB881A430B891A434B8919
:101590001A438B891A43A0F8442070474FF6FF7115
:1015A000818000210180C18041800172704700214B
:1015B000018041808180C180018141818181C1811F
:1015C0007047002101804180012181800021C1807C
:1015D000018170470021018041808180C1800181AB
:1015E0004181818170470000002C0140003401409E
:1015F0000004004000080040000C004021B10288B7
:1016000042F00102028004E002884FF6FE731A40A5
:101610000280704731B1B0F8442042F40042A0F893
:10162000442005E0B0F84420C2F30E02A0F84420A4
:1016300070471AB183890B43838102E083898B430E
:10164000838170478182704741EA0203A0F84830E5
:1016500070471AB183890B43838102E083898B43EE
:101660008381704701894FF6F872114001817047FC
:101670000A46002101894FF68F73194011430181F9
:10168000704730B504460D4629462046FFF7F0FF67
:10169000208940F00700208130BD2DE9F04104464B
:1016A0000D4616461F46602D06D13B4601223146A7
:1016B0002046FFF75AFE05E03B4601223146204610
:1016C000FFF79DFE29462046FFF7D2FF208940F014
:1016D00007002081BDE8F08130B50C46002101896A
:1016E000C9B24FF6FF7505EA032515432543294383
:1016F000018130BD2DE9F04105460E46174698465A
:10170000002443463A4631462846FFF7E5FF2C8938
:101710004FF6F870044044F007044FF68F70044011
:1017200044F070042C81BDE8F081F0B504460D460C
:1017300016461F463B46324629462046FFF7CCFF59
:10174000208940F480402081F0BD0185828270476D
:101750000A46002101884FF68F731940114301801A
:101760007047F0B50C4615461E46002100220023A6
:101770000189028B038C4FF6F877394021434FF6ED
:10178000FC473A4040F201173A434FF6DD773B40C1
:101790004FF6FF7707EA06172F433B430181028389
:1017A0000384F0BD0A460021018B4FF68F73194068
:1017B0001143018370470A460021018B48F6FF73ED
:1017C00019404FF6FF7303EA022319430183704760
:1017D0000A460021818B4FF68F7319401143818394
:1017E00070470A460021818B48F6FF7319404FF677
:1017F000FF7303EA022319438183704721B10288F2
:1018000042F08002028004E002884FF67F731A40A3
:101810000280704721B1828842F00402828004E095
:1018200082884FF6FB731A408280704721B182880C
:1018300042F00802828004E082884FF6F7731A4073
:101840008280704721B1828842F00102828004E0E8
:1018500082884FF6FE731A40828070470A46002144
:10186000018B4FF6F77319401143018370470A4605
:101870000021018B4FF2FF7319404FF6FF7303EA0B
:1018800002231943018370470A460021818B4FF6DA
:10189000F77319401143818370470A460021818BF9
:1018A0004FF2FF7319404FF6FF7303EA0223194307
:1018B000818370470A460021018B4FF6FB73194064
:1018C0001143018370470A460021018B4FF6FF3315
:1018D00019404FF6FF7303EA02231943018370474F
:1018E0000A460021818B4FF6FB7319401143818317
:1018F00070470A460021818B4FF6FF3319404FF69F
:10190000FF7303EA02231943818370470A460021CB
:10191000018B4FF67F7319401143018370470A46CC
:101920000021018BC1F30E014FF6FF7303EA02237E
:101930001943018370470A460021818B4FF67F735C
:1019400019401143818370470A460021818BC1F3FE
:101950000E014FF6FF7303EA022319438183704798
:101960000A460021018C4FF6FD7319401143018492
:1019700070470A460021018C4FF6F7731940114356
:10198000018470470A460021018C4FF6DF7319402D
:101990004FF6FF7303EA02131943018470470A46A6
:1019A0000021018C4FF67F7319404FF6FF7303EA55
:1019B00002131943018470470A460021018C4FF637
:1019C000FF5319404FF6FF7303EA022319430184C2
:1019D00070470A460021018C4FF2FF7319404FF601
:1019E000FF7303EA02231943018470470A4600216A
:1019F000018C4DF6FF7319404FF6FF7303EA023373
:101A000019430184704730B5002301248C40A3B2F0
:101A1000048C9C430484048C02FA01F5ADB22C437F
:101A2000048430BD30B5002304248C40A3B2048C60
:101A30009C430484048C02FA01F5ADB22C43048467
:101A400030BD70B50346002000241846183001252B
:101A50008D40ACB21D8CA5431D8409B1082909D164
:101A600000EB6100056825F0700505600568154309
:101A700005600EE00D1FC5F34E052844056825F4EA
:101A8000E045056005684FF6FF7606EA0226354315
:101A9000056070BD21B1028842F00202028004E0BC
:101AA00002884FF6FD731A400280704721B1028808
:101AB00042F00402028004E002884FF6FB731A40F1
:101AC0000280704721B1828842F08002828004E067
:101AD00082884FF67F731A408280704702884FF6E3
:101AE000F7731A40028002880A4302807047828896
:101AF0004FF68F731A40828082880A438280704733
:101B000002894FF6F8731A40028102890A43028162
:101B1000704702894FF67F731A40028102890A4397
:101B20000281704781847047818570478186704744
:101B30000187704781877047A0F84010704702887E
:101B40004FF6FF431A40028002880A430280704722
:101B50000146888E70470146088F70470146888F7E
:101B600070470146B1F8400070470146888C7047C5
:101B70000146088D704702460020138A0B400BB1C6
:101B8000012000E000207047CA430282704730B550
:101B90000246002000230024158A05EA01039589E6
:101BA00005EA010413B10CB1012000E0002030BDB2
:101BB000CA4302827047000010B50446FB488442C5
:101BC00009D101218803FFF79FF800214FF48040DD
:101BD000FFF79AF832E0F648844209D1012148041F
:101BE000FFF79FF800214FF40030FFF79AF825E047
:101BF000F048844209D101218804FFF792F80021BE
:101C00004FF48020FFF78DF818E0EB48844209D1AB
:101C10000121C804FFF785F800214FF40020FFF7E9
:101C200080F80BE0E548844208D101210805FFF760
:101C300078F800214FF48010FFF773F810BD2DE9FC
:101C4000F04786B005460E460024A24600BFA146D6
:101C50000027B08900B100BF2F462C8A4CF6FF70D8
:101C60000440F08804432C82AC894EF6F310044003
:101C7000B08831890843718908430443AC81AC8A38
:101C80004FF6FF400440B0890443AC8201A8FEF740
:101C9000B4FFC648874202D1DDF810A001E0DDF8AC
:101CA0000CA0A88900F4004040B10AEBCA0000EB88
:101CB0000A1031684900B0FBF1F807E00AEBCA00EE
:101CC00000EB0A1031688900B0FBF1F86420B8FB22
:101CD000F0F004012009642101FB1089A88900F4B7
:101CE000004040B1322000EBC900B0FBF1F000F041
:101CF0000700044308E0322000EB09106421B0FB28
:101D0000F1F000F00F0004432C8106B0BDE8F0872D
:101D10004FF41651016000218180C18001810C21A6
:101D2000418100218181704710B502460020108A50
:101D30004FF2FF0318400B884C8823438C882343C1
:101D4000CC8823431843108210BD002101804180BC
:101D50008180C180704721B1828942F40052828122
:101D600004E082894DF6FF731A4082817047F0B516
:101D70000346002400260025002040F66A17B942D9
:101D800000D100BF1846C1F3421401F01F0601271D
:101D900007FA06F5012C01D10C3004E0022C01D128
:101DA000103000E014301AB107682F43076002E0DA
:101DB0000768AF430760F0BD1AB1838A0B43838283
:101DC00002E0838A8B4383827047028A4FF6F07366
:101DD0001A400282028A0A430282704782894FF2C5
:101DE000FF731A40828182890A438281704721B140
:101DF000828942F00202828104E082894FF6FD73FB
:101E00001A4082817047028A4FF6DF731A400282BD
:101E1000028A0A430282704721B1028A42F4804258
:101E2000028204E0028A4BF6FF731A400282704776
:101E3000C1F308028280704701468888C0F3080019
:101E40007047818941F0010181817047028BD2B2D4
:101E50000283028B42EA012202837047028B02F462
:101E60007F420283028B0A430283704721B1828A38
:101E700042F02002828204E0828A4FF6DF731A4029
:101E80008282704721B1828A42F01002828204E08D
:101E9000828A4FF6EF731A408282704721B1828A9C
:101EA00042F00802828204E0828A4FF6F7731A40F9
:101EB0008282704721B1828942F40042828103E02C
:101EC0008289C2F30E028281704721B1828A42F474
:101ED0000062828204E0828A4FF2FF731A4082829B
:101EE0007047828A4FF6FB731A408282828A0A43C5
:101EF0008282704721B1828A42F00202828204E02B
:101F0000828A4FF6FD731A40828270470246002093
:101F1000B1F5007F00D100BF13880B400BB1012049
:101F200000E00020704701F40072B2F5007F00D19C
:101F300000BFCA430280704770B5024600240023E8
:101F40000025002040F66A16B14200D100BFC1F35F
:101F5000421501F01F03012606FA03F3012D02D1F9
:101F60009689334006E0022D02D1168A334001E003
:101F7000968A33400C12012606FA04F4168834407F
:101F800013B10CB1012000E0002070BD10B500229B
:101F9000002340F66A14A14200D100BF0A120124B6
:101FA0009440A3B2DC43048010BD0000003801401F
:101FB0000044004000480040004C004000500040F9
:101FC00031490143314A1160704770B50021002347
:101FD0000F22C47804B32D4C246804F4E064C4F5E3
:101FE000E064210AC1F10403CA40447804FA03F111
:101FF0008478144021430901254C0678A1550478C2
:1020000004F01F050124AC4005786D11AD0005F109
:10201000E025C5F8004109E0047804F01F0501241B
:10202000AC401C4D0678761145F8264070BD1A4A22
:102030000A400243154B1B1F1A60704739B1134AFF
:10204000121D12680243114B1B1D1A6006E00F4A55
:10205000121D126882430D4B1B1D1A607047042825
:1020600008D14FF0E021096941F004014FF0E0226E
:10207000116107E04FF0E021096921F004014FF000
:10208000E0221161704700000000FA050CED00E04D
:1020900000E400E080E100E080FFFF1F10B504468F
:1020A000FA48844208D101214015FEF72DFE002197
:1020B0006015FEF729FE17E0F548844208D101219A
:1020C0000015FEF721FE00212015FEF71DFE0BE096
:1020D000F048844208D10121C803FEF715FE002113
:1020E0004FF40040FEF710FE10BD30B50246002050
:1020F00000235068E84C20400D790C6844EA052420
:10210000204350609068E54C2040D1E902542C43B4
:102110004D7944EA450420439060D06A20F4700071
:102120000C7C641EE4B2234340EA0350D06230BD0D
:1021300000210160017141718160C1600121017460
:10214000704721B1826842F00102826003E0826838
:1021500022F001028260704721B1826842F48072ED
:10216000826003E0826822F480728260704710B55A
:102170000023CBB21AB144681C43446002E04468B7
:102180009C43446010BD816841F008018160704744
:10219000014600208A6802F008020AB1012000E02E
:1021A00000207047816841F004018160704701465A
:1021B00000208A6802F004020AB1012000E0002039
:1021C000704721B1826842F4A002826003E0826815
:1021D00022F4A00282607047014600208A6802F45F
:1021E00080020AB1012000E00020704710B50A46C5
:1021F00000210023416821F46041531E41EA43312C
:10220000416010BD21B1426842F40062426003E0C7
:10221000426822F4006242607047F0B504460D4601
:1022200000200021092D11DDE068A5F10A0606EB6A
:102230004607072606FA07F18843A5F10A0606EBCA
:10224000460603FA06F10843E0600CE0206905EB5E
:102250004507072606FA07F1884305EB450603FA0A
:1022600006F108432061072A0FDA606B561E06EB61
:1022700086071F2606FA07F18843561E06EB8606D8
:1022800005FA06F10843606322E00D2A0FDA206B9D
:10229000D61F06EB86071F2606FA07F18843D61FCE
:1022A00006EB860605FA06F10843206310E0E06AB3
:1022B000A2F10D0606EB86071F2606FA07F18843F2
:1022C000A2F10D0606EB860605FA06F10843E06268
:1022D000F0BD21B1826842F48012826003E082681E
:1022E00022F48012826070470146C86C80B2704749
:1022F00066484C300068704721B1426842F4806201
:10230000426003E0426822F480624260704721B17B
:10231000426842F48052426003E0426822F48052F4
:10232000426070470A460021816821F4E041114370
:102330008160704721B1826842F40042826003E00C
:10234000826822F400428260704721B1826842F4C0
:102350000212826003E0826822F4021282607047F7
:10236000014600208A6802F400120AB1012000E050
:1023700000207047F0B504461546002000220026D4
:10238000092911DDE068A1F10A0707EB470C0727CF
:1023900007FA0CF29043A1F10A0707EB470703FA8B
:1023A00007F21043E0600CE0206901EB410C0727C5
:1023B00007FA0CF2904301EB410703FA07F21043CE
:1023C0002061A06BC0F30156EF1C06F1010CA7EBD6
:1023D0000C0707EB870C1F2707FA0CF29043EF1C42
:1023E00006F1010CA7EB0C0707EB870701FA07F2D0
:1023F0001043A063F0BD10B50A4600210023816B95
:1024000021F44011531E41EA0351816310BD08B508
:10241000002300930090009B0B440093009B1A60E4
:1024200008BD08B5024600200090009201F1280086
:10243000009B184400900098006880B208BD0A46CE
:1024400000214168164B19401143416070474162B9
:10245000826270470A460021416821F01F01114342
:102460004160704740B109490831096841F40001F1
:10247000064A0832116007E004490831096821F46E
:102480000001024A08321160704700000024014038
:1024900000280140003C0140FFFEF0FFFDF7F1FF86
:1024A000FFFD3FFF0246002013680B400BB10120E7
:1024B00000E000207047CA430260704770B50246D2
:1024C0000020002300240B125568CEB205EA060452
:1024D00015681D4015B10CB1012000E0002070BD51
:1024E00000220A12D34303607047000000204449D1
:1024F0000860091D0860091D0860091D0860414841
:102500003F4914310860704700213D498279002A13
:102510003AD00A46126803689A430B461A600A1DAD
:10252000126803689A430B1D1A60027911440A6805
:1025300003681A430A60324A0832126803689A43F1
:102540002F4B08331A601A1D126803689A432C4BEC
:102550000C331A604279102A0ED11A1F12680368D0
:102560001A43274B08331A601A1D126803681A436E
:10257000234B0C331A600DE02149427911440A685B
:1025800003681A430A6005E0027911440A68036887
:102590009A430A6070470021016001710C2141716A
:1025A0000021817170471649103109680143144AAE
:1025B00010321160704701460020114A143212682F
:1025C0000A400AB1012000E0002070470C49143194
:1025D00008607047014600200022094B1B6803EA8F
:1025E0000102074B14331B680B4013B10AB10120E1
:1025F00000E0002070470249143108607047000075
:1026000000040140FFFF0F000146F8488088802841
:1026100001DB00207047F5484288801D8154821FED
:102620005288501CC21700EB5262D211A0EBC212AA
:10263000EE4B5A8018468088401C1A469080012034
:10264000E8E70146E948808808B900207047E74874
:102650000288801D805C0870E44A1288501CC217F2
:1026600000EB5262D211A0EBC212E04B1A80184666
:102670008088401E80B21A46908000BFE6E70121A4
:10268000017041704FF4E1314160002202814281CA
:1026900082810C22C28100220282022101754175D1
:1026A00003218175C1750021D04A1180918051802C
:1026B000704730B58DB004460D4604B115B9002001
:1026C0000DB030BDCA48844203D1CA48C849086029
:1026D00009E0C948844204D1C6482838C649086080
:1026E00001E00020ECE7287820712068006A10B132
:1026F0002068806910B90021617101E06978617119
:10270000BB48844202D1BD49A16107E0BA48844276
:1027100002D1BB49A16101E00020D1E70021A069FD
:102720000170B348844202D1B649216207E0B24841
:10273000844202D1B449216201E00020C0E70021B7
:1027400084F8241084F8251084F8261021770CA82A
:10275000FEF78FF820688089ADF8300003208DF8EF
:10276000320018208DF83300216888680CA9FDF725
:10277000F5FF2068808AADF8300004208DF8330022
:10278000216808690CA9FDF7E9FF6968A160298A39
:10279000A182E9896182A98921826989E1812989E6
:1027A000A18121680868291DFFF749FA607901288D
:1027B00010D1206890F824008DF82C00A87D8DF8A9
:1027C0002D00E87D8DF82E0001208DF82F000BA83C
:1027D000FFF7FBFB2068806908B1012000E00020C2
:1027E0002168096A09B1012100E0002108400028A0
:1027F0004DD0607901284AD121688869FDF724FE0F
:1028000020680068001D0090A069401C0190002015
:1028100002900A2003900020049080200590002060
:102820000690079008904FF44050099000200A90BD
:10283000216888696946FDF7A9FE21680122886937
:102840000221FDF7DAFE216888690A21FDF7DEFE24
:102850002168086AFDF7F8FD20680068001D0090F7
:10286000206A401C0190102002900A2003902168E9
:10287000086A6946FDF78AFE21680122086A02217A
:10288000FDF7BBFE2168086A0021FDF7BFFE206846
:10289000806908B1012000E000202168096A09B1BF
:1028A000012100E000210840B0B1607950B92168F1
:1028B00088690021FDF795FE2168086A0021FDF76F
:1028C00090FE09E0216888690121FDF78AFE2168F0
:1028D000086A0121FDF785FE206800798DF82C003B
:1028E000287D8DF82D00687D8DF82E0001208DF853
:1028F0002F000BA8FFF769FB6079A8B921680122B6
:10290000086840F22551FFF732FA21680022086872
:1029100040F22441FFF72BFA21680022086840F2B8
:102920002661FFF724FA2EE021680022086840F2B1
:102930002551FFF71CFA21680122086840F2244162
:10294000FFF715FA21680022086840F22661FFF7B8
:102950000EFA2068806908B1012000E0002021689B
:10296000096A09B1012100E00021084058B121683D
:10297000012208684021FFF71FFA21680122086838
:102980008021FFF719FA01209AE610B504460CB928
:10299000002010BD216808680121FFF7DCF92068DC
:1029A000806908B1012000E000202168096A09B1AE
:1029B000012100E00021084038B16079012804D1EC
:1029C000216888690121FDF70CFE0120E1E710B5BF
:1029D00004460CB9002010BD216808680021FFF7EB
:1029E000BAF92068806988B1012010E05A030020FC
:1029F000E402002064010020BC0200200C0300203F
:102A000022030020170300202D030020002021684E
:102A1000096A09B1012100E00021084038B160795C
:102A2000012804D1216888690021FDF7DAFD012021
:102A3000D1E770B504460D4604B10DB9002070BD54
:102A4000207F01283AD1FE4884420FD100F0B5FB27
:102A5000FC48007828702A78FA49491C681C02F062
:102A6000FAFD0021217700F0A2FB11E0F648844234
:102A70000ED100F0A2FBF548007828702A78F349BF
:102A8000491C681C02F0E7FD0021217700F08FFB54
:102A9000EF48844210D100F090FBEE480078287097
:102AA000A06910F8012B0146681C02F0D4FD00213A
:102AB000217700F07CFB01E00020C0E70120BEE7A9
:102AC00070B504460D460CB9002070BD94F8250081
:102AD00001280CD100F071FB94F8260068700021E9
:102AE00084F826100120287000F061FB06E000F059
:102AF00064FB00202870687000F059FB0120E4E7B7
:102B000070B50446CE4884421ED1206A401CD2498A
:102B10000978455C206A0078CF49097888420BDD46
:102B2000216808682946FFF783F9CB480078401CE4
:102B3000C9490870012070BD002184F824100020CC
:102B4000C54908700120F6E7BF4884421ED1206ABB
:102B5000401CC2490978455C206A0078BF49097861
:102B600088420BDD216808682946FFF761F9BB48F8
:102B70000078401CB94908700120DCE7002184F886
:102B800024100020B54908700120D4E7B0488442E1
:102B900021D1206A401CB2490978455C206A00783E
:102BA000AF49097888420EDD216808682946FFF799
:102BB0003FF9012184F82410A9480078401CA84955
:102BC00008700120B7E7002184F824100020A449F0
:102BD00008700120AFE70020ADE770B50446206A19
:102BE00005780A2D00DD0A252168086A0021FDF715
:102BF000F8FC2168086AFDF70BFDC6B22168086A77
:102C00000121FDF7EEFC002E10DC2168086A00218E
:102C1000FDF7E7FC2168086A2946FDF7F7FC216803
:102C2000086A0121FDF7DDFC012070BD0020FCE7F2
:102C300070B504460D4604B10DB9002070BD94F87E
:102C40002400012828D17E48844209D1287885496A
:102C500008702A78691C8348401C02F0FCFC1BE0C9
:102C60007948844209D128787F4908702A78691CFC
:102C70007D48401C02F0EFFC0EE07548844209D10B
:102C800028787A4908702A78691C7848401C02F034
:102C9000E2FC01E00020D1E7607901280AD194F834
:102CA0002400012810D1002184F824102046FFF7C9
:102CB00094FF09E094F82400012805D1002184F84C
:102CC00024102046FFF71CFF0120B7E730B502466D
:102CD00002B109B9002030BD90698578C07845EA15
:102CE00000259069007945EA00459069407945EAF8
:102CF000006390698579C07945EA00259069007A7A
:102D000045EA00459069407A45EA00640B604C60F2
:102D10000120E0E7F0B505460C4616461F460DB902
:102D20000020F0BD5248007828B9B44203D10120F8
:102D30004F49087028E04E480078012808D1BC426D
:102D400006D102204A49087000204A4908701BE059
:102D500047480078022814D1A869401C45490978E1
:102D6000491CC9B2434A11704454104600780828DF
:102D70000ADB00203E4908703F492846FFF7A6FFBE
:102D800002E000203A4908700120CAE72DE9F0412D
:102D9000044600BF002514B90020BDE8F081284892
:102DA00084426FD12168086840F22551FFF7C4F8CA
:102DB000002837D02168086840F22551FFF7E6F86F
:102DC00021680868FFF738F8C2B2A069401C2B4997
:102DD0000B780978491C294F3970C254A0690078D2
:102DE000401CC1B2A069017094F82600401C84F810
:102DF0002600384600780A280ADB012184F82510CD
:102E000021771F492046FFF75BFE002039460870F6
:102E1000206800688088C5B2AE23AA2229462046D1
:102E2000FFF778FF2168086840F22441FFF784F833
:102E300040B3206800680088C6B22068006822E0BD
:102E40009402002038030020BC020020220300204E
:102E5000E40200200C030020360000203700002090
:102E600038000020430300202D030020170300201A
:102E70003D0000203C0000202C00002039000020F4
:102E8000340000201AE08088C6B2216888690021D9
:102E9000FDF7A7FB21688869FDF7BAFBC0F10A00BE
:102EA000C5B2A0690570012184F8251084F8265068
:102EB000C5492046FFF704FE01212177C34884421B
:102EC00067D12168086840F22551FFF735F80028DE
:102ED00037D02168086840F22551FFF757F821687C
:102EE0000868FEF7A9FFC2B2A069401CB8490B7878
:102EF0000978491CB64F3970C254A0690078401C4B
:102F0000C1B2A069017094F82600401C84F8260024
:102F1000384600780A280ADB012184F82510217739
:102F2000A9492046FFF7CCFD0020394608702068EB
:102F300000688088C5B2AE23AA2229462046FFF742
:102F4000E9FE2168086840F22441FEF7F5FF00B36E
:102F5000206800680088C6B2206800688088C6B211
:102F6000216888690021FDF73CFB21688869FDF72D
:102F70004FFBC0F10A00C5B2A0690570012184F8B9
:102F8000251084F8265090492046FFF799FD01212D
:102F90002177904884427CD108218F48FEF7B6FF04
:102FA00038B18D48FEF748FFC6B208218A48FEF7BF
:102FB000BAFF2168086840F22551FEF7BDFF68B3EB
:102FC0002168086840F22551FEF7E0FF2168086893
:102FD000FEF732FFC2B2A069401C80490B78097825
:102FE000491C7E4F3970C254A0690078401CC1B2A0
:102FF000A069017094F82600401C84F82600384629
:1030000000780A280ADB012184F8251021776E490F
:103010002046FFF755FD00203946087021680868F2
:1030200040F22441FEF788FF002859D0206800684C
:103030000088C6B2206800688088C6B221688869A6
:103040000021FDF7CEFA21688869FDF7E1FAC0F1A9
:103050000A00C5B2A0690570012184F8251084F822
:10306000265059492046FFF72BFDA0694078AA2831
:1030700029D1A0698078AE2825D1A069C1780079CE
:1030800041EA0021A069407941EA0041A0698079C4
:1030900000E025E041EA006051490860A069C1797B
:1030A000007A41EA0021A069407A41EA0041A06922
:1030B000807A41EA00604A4948600021A06940F8EE
:1030C000011F41600181216888690A21FDF79EFA8C
:1030D000216888690121FDF784FA0121201D2177EB
:1030E00000BF5AE670B504460CB9002070BD2068D8
:1030F000006A3C49884202D12025202626E020682B
:10310000006A3849283188420ED14FF40050FDF74B
:1031100083FA01281AD14003FDF792FA00213148C1
:103120002830FDF75EFA11E02068006A2D4964310D
:10313000884202D18504860408E020688069294914
:103140003C31884202D14FF400352E460120CDE7B4
:10315000024602B109B900207047214840685A2848
:103160000CDA1F48406810F15A0F07DD1C48406810
:103170001D4B18601A484068486002E01A48006811
:103180004860174800685A280CDA1548006810F1A2
:103190005A0F07DD12480068144B18601048006889
:1031A000086002E01148006808600120D4E7104977
:1031B000086880F3108800BF704700BFEFF31080ED
:1031C0000B49086072B6704734000020BC02002032
:1031D0003A000020E4020020003801403B000020BB
:1031E0002C0000201C000240440000204000002071
:1031F000280000209AB0A6A207CA02AB07C30A2083
:103200008DF830000298CDF831000398CDF83500E4
:10321000BDF81000ADF8390001210846FDF75AFD50
:10322000012144F23C00FDF755FD01210846FDF760
:1032300044FD01210F20FDF75AFD01214FF42050DC
:10324000FDF748FD00F094F905A800F0E9FC05A998
:10325000924800F07FFD914800F020FF06A8FFF79C
:103260000EFA06A98E48FFF724FA8D48FFF78DFB6A
:1032700001218B4880F8241000F0E4F900F0B2FB43
:1032800000F094FB17A801F03DF917A9854801F05B
:1032900068F9844801F033FA14A801F04FFA14A930
:1032A000814801F0D3FA804801F08FFB14A97F48D0
:1032B00001F0CCFA7D4801F088FB11A801F05AFC1E
:1032C00011A97B4801F080FC794801F0E1FC11A9CB
:1032D000784801F079FC774801F0DAFC01F016FC3F
:1032E0000FA801F0D7FF0FA9734801F0DEFF724865
:1032F00002F026F802F0CFF802F0B6F802F0EBF890
:1033000002F02AF8C2E008236CA20021084600F06F
:1033100066FC1020042300906A48028800213020B7
:1033200000F019FC10200623009067480021026875
:10333000502000F010FC082364A20321002000F0BC
:103340004EFC63480068002810DA082361A20321BC
:10335000102000F044FC082000905D4800684242C4
:1033600005230321202000F0F6FB0EE008235AA2DB
:103370000321102000F033FC08200090544805235E
:1033800003210268202000F0E6FB082353A203215A
:10339000402000F024FC52480068002810DA08237E
:1033A0004CA20321502000F01AFC082000904C4849
:1033B0000068424205230321602000F0CCFB0EE0B0
:1033C000082345A20321502000F009FC08200090AA
:1033D0004348052303210268602000F0BCFB08235A
:1033E00040A20521002000F0FAFB40484068002878
:1033F00010DA082337A20521302000F0F0FB082066
:1034000000903A484068424203230521402000F0E2
:10341000A2FB0EE0082330A20521302000F0DFFBE4
:10342000082000903148032305214268402000F025
:1034300092FB08232EA20721002000F0D0FB2B488E
:103440000068002810DA082322A20721302000F0AB
:10345000C6FB08200090254800684242032307214C
:10346000402000F078FB0EE008231BA2072130204B
:1034700000F0B5FB082000901C48032307210268D8
:10348000402000F068FB0A2000F0AEF83BE70000A7
:10349000313233343536373839400000500000209F
:1034A000E4020020E003002020040020300400207B
:1034B000500400206004002090040020766F6C3AD5
:1034C0000000000048000020D8000020454C00000B
:1034D000980000202D0000002B0000004552000045
:1034E000A000002072686F6572720000A8000020C2
:1034F000746865746100000010B51A48FFF746FC57
:1035000010BD10B5FFF7F8FF10BD10B51648FFF756
:103510003DFC10BD10B5FFF7F8FF10BD10B5134806
:10352000FFF734FC10BD10B5FFF7F8FF10BD10B564
:103530000E48FFF7D7FD10BD10B5FFF7F8FF10BD1F
:1035400010B50848FFF7CEFD10BD10B5FFF7F8FF26
:1035500010BD10B50448FFF7C5FD10BD10B5FFF74D
:10356000F8FF10BDE4020020BC02002094020020FD
:1035700010B56FF00400FEF772FD2E4800682E496A
:10358000B0FBF1F040B22D490870084690F90000F8
:103590004FF47A71484300B22949088010BD0146B2
:1035A000264A92F900204A434FF0E0235A61002254
:1035B0009A611A46126942F001021A6100BF4FF087
:1035C000E022106900F001021AB100F48032002AF2
:1035D000F5D04FF0E022126922F001024FF0E02313
:1035E0001A6100229A6170470146154AB2F900201B
:1035F0004A434FF0E0235A6100229A611A46126949
:1036000042F001021A6100BF4FF0E022106900F0A1
:1036100001021AB100F48032002AF5D04FF0E02206
:10362000126922F001024FF0E0231A6100229A6130
:10363000704700000000002000127A004A000020BD
:103640004C00002008B501211020FDF743FB4FF48A
:10365000C050ADF8000010208DF8030003208DF855
:1036600002006946FE48FDF779F80120FD4908602F
:10367000FD49C1F8AC0108BD10B5F948406820F417
:103680007040F74948600846406840F44050486040
:103690000120F449091F0860F349C1F8B001042072
:1036A000FFF77DFF0020EF49091F08600420FFF7A6
:1036B00076FF0020EC49C1F8B00110BD10B5E84814
:1036C000406820F47040E64948600846406840F48D
:1036D000405048600020E3490860E349C1F8AC016C
:1036E0000420FFF75CFF0120DE490860DE49C1F8D5
:1036F000AC010420FFF753FF10BD10B50024D848DB
:10370000406820F47040D64948600846406840F45C
:10371000004048600120D349091F0860FFF73FFFC0
:103720000120D149C1F8B001FFF739FF07E0601C63
:10373000C4B2FA2C03DDFFF7C1FF012010BDC94858
:10374000843800680028F2D1C649086000BFF5E758
:1037500010B50020C3490860C148406820F470409B
:10376000BF4948600846406840F440504860002027
:10377000BD49C1F8AC010220FFF711FF0120B94992
:1037800008600220FFF70BFF0020B749C1F8B00125
:1037900010BD10B50020B3490860B148406820F45E
:1037A0007040AF4948600846406840F44050486067
:1037B0000120AD49C1F8AC010220FFF7F0FE012065
:1037C000A84908600220FFF7EAFE0020A649C1F8D8
:1037D000B00110BD70B50446A148406820F47040A7
:1037E0009F4948600846406840F4405048600020C7
:1037F0009C490860002517E0E0099A49091F086004
:103800006006040E0220FFF7CAFE01209649C1F8A7
:10381000B0010220FFF7C3FE002092490860022099
:10382000FFF7BDFE681CC5B2082DE5DB70BD70B5A5
:10383000054600248A48406820F470408849486062
:103840000846406840F400404860002616E000202A
:10385000844908600220FFF7A2FE01208249C1F8D6
:10386000B0016006040E7F488438006808B1601C0F
:10387000C4B20120FFF793FE701CC6B2082EE6DB2F
:1038800015B9FFF786FF01E0FFF762FF204670BD24
:1038900070B50446002519E004F0800020B1012035
:1038A0007049091F086003E000206E49091F086085
:1038B00001206C4908600420FFF771FE00206A496E
:1038C000C1F8B0016006040E681CC5B2082DE3DB28
:1038D00001206449091F08606349C1F8B001042050
:1038E000FFF75DFE00205F49086070BD10B504461B
:1038F000FFF7C2FE7820FFF76DFFFFF7FEFE4020C6
:10390000FFF768FFFFF7F9FE2046FFF763FFFFF7B9
:10391000F4FEFFF7D3FE10BD10B50446FFF7ACFE72
:103920007820FFF757FFFFF7E8FE08B100BFFEE77A
:103930000020FFF74FFFFFF7E0FE2046FFF74AFFAA
:10394000FFF7DBFEFFF7BAFE10BD70B504460D466B
:1039500005F1B001C8B2FFF7DFFF102141EA1410F2
:10396000FFF7DAFF04F00F0141F00100FFF7D4FF89
:1039700070BD70B50646002415E004F1B001C8B270
:10398000FFF7CAFF0120FFF7C7FF1020FFF7C4FFB2
:10399000002504E03046FFF7A9FF681CC5B2802D62
:1039A000F8DB601CC4B2082CE7DB70BD70B50024E6
:1039B00015E004F1B001C8B2FFF7AEFF0120FFF738
:1039C000ABFF1020FFF7A8FF002504E00020FFF761
:1039D0008DFF681CC5B2802DF8DB601CC4B2082CBA
:1039E000E7DB70BD10B54FF4FA70FFF7FDFDAE20B8
:1039F000FFF792FF0020FFF78FFF1020FFF78CFFEB
:103A00004020FFF789FF8120FFF786FFCF20FFF7D7
:103A100083FFA120FFF780FFC820FFF77DFFA620CE
:103A2000FFF77AFFA820FFF777FF3F20FFF774FF2B
:103A3000D320FFF771FF0020FFF76EFFD520FFF7BF
:103A40006BFF8020FFF768FFD920FFF765FFF120AB
:103A5000FFF762FFDA20FFF75FFF122006E00000A9
:103A600000100140B001224200002242FFF754FF43
:103A7000DB20FFF751FF4020FFF74EFF2020FFF72C
:103A80004BFF0220FFF748FF8D20FFF745FF142072
:103A9000FFF742FFA420FFF73FFFA620FFF73CFF00
:103AA000AF20FFF739FF0020FFF763FF0021084632
:103AB000FFF74BFF10BD2DE9F04781460E46174634
:103AC000984600250024A7F12000C5B2B8F1100FD8
:103AD00022D131464846FFF738FF00BF07E004EB2C
:103AE00005114D4A505CFFF701FF601CC4B2082C61
:103AF000F5DB701CC1B24846FFF727FF002408E041
:103B000004EB05110831444A505CFFF7EFFE601CDE
:103B1000C4B2082CF4DB11E031464846FFF715FF2C
:103B2000002409E005EB45013C4A02EB4101085D38
:103B3000FFF7DCFE601CC4B2062CF3DBBDE8F087A7
:103B400010B50246012000E050430B00A1F1010432
:103B5000E1B2F9D110BD2DE9FF5F074691461E463F
:103B60000E9D4FF0000A002435E0301B401EC1B20C
:103B70000A20FFF7E5FFB9FBF0F00A21B0FBF1F2F4
:103B800001FB1208BAF1000F14D1701EA04211DD22
:103B9000B8F1000F0CD1AB4605EBDB71491001FB0E
:103BA0000471C8B22B4620220199FFF784FF10E070
:103BB0004FF0010AAB4605EBDB71491001FB0471C4
:103BC000C8B208F13001CAB22B460199FFF773FF62
:103BD00000BF601CC4B2B442C7DBBDE8FF9F2DE943
:103BE000F04104460F461546984600260FE0AA5DB0
:103BF000434639462046FFF75EFF04F10800C4B291
:103C0000782C02DD0024B81CC7B2701CC6B2A85DB7
:103C10000028ECD1BDE8F081C26F00089A6D000861
:103C200001210170002141707047014641B10868CF
:103C3000006828B10868406810B10868008908B9B0
:103C4000002070470120FCE710B50446FE4884427E
:103C500018D1FFF7EAFF002865D0FB48007901285A
:103C600061D1F94A1268917AF74A126807231068FD
:103C70000122FEF7D2FAF449096808680121FEF72B
:103C8000A0FA50E0F148844218D1FFF7CEFF002897
:103C900049D0EE480079012845D1EC4A1268917A62
:103CA000EA4A1268072310680122FEF7B6FAE749CC
:103CB000096808680121FEF784FA34E0E448844288
:103CC00017D1FFF7B2FF70B3E148007901282AD17C
:103CD000DF4A1268917ADE4A1268072310680122CF
:103CE000FEF79BFADA49096808680121FEF769FACC
:103CF00019E0D848844216D1FFF797FF98B1D5480C
:103D0000007901280FD1D34A1268917AD14A1268FA
:103D1000072310680122FEF780FACE490968086877
:103D20000121FEF74EFA10BD38B504462046FFF7D4
:103D30007CFF08B9002038BD20680089ADF800007C
:103D400000208DF80300216848686946FCF706FDED
:103D50000120F0E72DE9F04391B004460D464FF401
:103D6000967804B11DB9002011B0BDE8F083B648C3
:103D7000844203D1B848B449086019E0B34884428A
:103D800004D1B5481030B149086011E0B048844210
:103D900004D1B1482030AE49086009E0AD48844202
:103DA00004D1AD483030AB49086001E00020DBE7CA
:103DB000287820712068C06810B90021617101E085
:103DC00069786171A048844217D1007901280FD128
:103DD0009D4800680068A149884201D1701C86B2E4
:103DE0009948006800689E49884201D1781C87B2D2
:103DF00000209C49087048705BE0944884421BD1C5
:103E00002878924908710846007901280FD10846A0
:103E1000006800689149884201D1701C86B28B48C5
:103E2000006800688E49884201D1781C87B2002062
:103E30008D49087048703CE0854884421BD1287841
:103E4000834908710846007901280FD108460068A7
:103E500000688249884201D1701C86B27C480068A3
:103E600000687F49884201D1781C87B200207F49D1
:103E7000087048701DE0774884421AD12878754947
:103E800008710846007901280FD1084600680068CB
:103E90007249884201D1701C86B26E480068006881
:103EA0006F49884201D1781C87B2002070490870A0
:103EB00048702046FFF738FF8146012E7ED1012150
:103EC0004802FCF707FFF003FCF768FE216808686A
:103ED000FEF7E4F800200C908DF834008DF83500E2
:103EE0004FF460200E9000200F9001208DF84000CC
:103EF000216808680CA9FEF7F8F821680868012114
:103F0000FEF71FF921680868FEF73DF900BF216838
:103F10000868FEF73DF90028F9D121680868FEF726
:103F200041F900BF21680868FEF741F90028F9D17E
:103F30004548006800684949884202D14248FFF775
:103F400083FE2068408928B32068C06810B3607978
:103F500001281FD12168C868FCF776FA3F484C3029
:103F60000190444802900020039002200490002019
:103F70000590802006904000079080000890202047
:103F8000099000020A9000200B902168C86801A9DE
:103F9000FCF7FCFA2068408978B12068C06860B1FD
:103FA0006079012809D1216808680121FEF7D4F859
:103FB0002168C8680121FCF714FB00E007E000BF9E
:103FC0005FEA0800A8F101011FFA81F8F8D1012F7A
:103FD00062D101218802FCF77DFEF803FCF7DEFDCB
:103FE00021680868FEF75AF800200C908DF834001C
:103FF0008DF835004FF460200E9000200F900120C6
:104000008DF84000216808680CA9FEF76EF8216859
:1040100008680121FEF795F821680868FEF7B3F8F3
:1040200000BF21680868FEF7B3F80028F9D12168BD
:104030000868FEF7B7F800BF21680868FEF7B7F810
:104040000028F9D1004817E0500000205800002057
:1040500060000020680000208C0100200024014046
:10406000002801407000002074000020780000202B
:104070007C0000208000002000680068FE49884223
:1040800002D1FE48FFF7E0FD00BF5FEA0800A8F19B
:1040900001011FFA81F8F8D1484665E600B50246ED
:1040A0001046FFF7C2FD08B9002000BDF348824268
:1040B00003D10120F149087116E0F148824203D191
:1040C0000120EF4908710FE0EE48824203D1012040
:1040D000EC49087108E0EC48824203D10120EA492A
:1040E000087101E00020E0E70120DEE700B50246AC
:1040F0001046FFF79AFD08B9002000BDDF48824254
:1041000003D10020DD49087116E0DD48824203D169
:104110000020DB4908710FE0DA48824203D1002019
:10412000D849087108E0D848824203D10020D64916
:10413000087101E00020E0E70120DEE702460AB94D
:1041400000207047CD4882420ED1D04840780128E7
:1041500007D10870CD48408848800020CB4B58706C
:1041600037E00020087034E0C54882420ED1C848CC
:104170004078012807D10870C54840884880002051
:10418000C34B587025E00020087022E0BD488242F1
:104190000ED1C0484078012807D10870BD4840883A
:1041A00048800020BB4B587013E00020087010E0DE
:1041B000B54882420DD1B8484078012807D108702F
:1041C000B548408848800020B34B587001E000207B
:1041D000087000BFB5E72DE9FF5F82468B46BAF154
:1041E000000F03D1002004B0BDE8F09FA348824532
:1041F00021D1AA49088802F04DF980464FF0663275
:10420000A74B02F05BF90022A64BCDE9000102F0BA
:1042100055F906460022A44B01F070FF0446002227
:10422000A24B02F04BF9CDE9020102F0EFF880B2A7
:10423000ABF8000001E00020D5E700BFD3E770B580
:104240000446216808680221FEF72CF9012849D1AB
:1042500021680868FEF748F805464FF6FF7085426A
:1042600001DB054602E0002D00DC002500BF00BF99
:10427000EFF310808E49086072B600BF7F48844219
:1042800006D10120814908704870084645801CE02D
:104290007B48844206D101207D4908704870084659
:1042A000458012E07748844206D1012079490870A0
:1042B00048700846458008E07348844205D10120D3
:1042C0007549087048700846458000BF78490868FD
:1042D00080F3108800BF00BF216808680221FEF744
:1042E000EAF81AE06548844203D100206749087063
:1042F00013E06348844203D10020654908700CE054
:104300006048844203D100206249087005E05E489D
:10431000844202D100206049087070BD10B5654923
:1043200003C94FF0FF3358405940084303D10021DF
:10433000604A116051600420012806D0022816D07E
:10434000032836D004287CD165E004220023594993
:1043500003C901F009F900214A404B401A4305D135
:104360004648FFF76CFF4548FFF76EFCB9E00422B2
:104370000023504903C901F0F7F800214A404B409F
:104380001A4305D13D48FFF75AFF3D48FFF75CFC53
:1043900004220023474903C901F0E6F801214A40FD
:1043A0001A4305D13648FFF74AFF3448FFF74CFC63
:1043B00097E0042200233F4903C901F0D5F800210A
:1043C0004A404B401A4305D12C48FFF738FF2C4890
:1043D000FFF73AFC04220023364903C901F0C4F870
:1043E00001214A401A4305D12548FFF728FF2548F7
:1043F000FFF72AFC042200232E4903C901F0B4F878
:1044000002214A401A4305D11E48FFF718FF1B48F6
:10441000FFF71AFC65E004220023264903C901F0D6
:10442000A3F800214A404B401A4305D11348FFF737
:1044300006FF1348FFF708FC042200231D4903C9A7
:1044400000E04DE001F090F801214A401A4305D107
:104450000B48FFF7F4FE0B48FFF7F6FB042200239E
:10446000144903C901F080F802214A401A4326D1B9
:104470000448FFF7E4FE1FE0002801405000002040
:10448000580000206000002068000020700000201C
:1044900074000020780000207C00002080000020B4
:1044A00066660A40000026400000B0400000594007
:1044B00084000020880000200F48FFF7C5FB04227D
:1044C00000230E4903C901F04FF803214A401A4363
:1044D00005D10948FFF7B3FE0948FFF7B5FB00E037
:1044E00000BF00BF0548D0E90010491C40F10000A2
:1044F000024AC2E9001010BD6800002088000020B8
:104500005000002010B54723002414B1102C04D112
:1045100000E000BF44F6206100E000BF00BF40F2B1
:10452000DC52002484706024447000240470818074
:10453000C380028110BD38B504460CB9002038BDD7
:104540006846FCF796F920688089ADF800001820CD
:104550008DF80300216888686946FCF7FFF80120A0
:10456000EDE730B587B004460D4614B9002007B01A
:1045700030BDFA48844203D1F948F849086013E095
:10458000F848844204D1F6481030F64908600BE040
:10459000F548844204D1F2482030F349086003E032
:1045A000EF483030F149086004A8FCF7F7FFA8880D
:1045B000ADF81400E888ADF81000A878ADF8120046
:1045C0002168086804A9FCF7BDFC6846FCF7EFFF0A
:1045D0006878ADF800000120ADF802002889ADF838
:1045E0000600287810B1022808D103E00020ADF8B9
:1045F000080004E00220ADF8080000E000BF00BFA2
:104600002068808830B104280FD0082818D00C28E2
:104610002CD120E0216808686946FCF7D0FC2168AD
:1046200008680821FDF71AF921E021680868694641
:10463000FCF707FD216808680821FDF718F916E066
:10464000216808686946FCF749FD21680868082167
:10465000FDF71AF90BE0216808686946FCF789FD47
:10466000216808680821FDF718F900E000BF00BFC5
:10467000216808680121FDF7C1F82046FFF75BFFBC
:10468000A9882181E98861812989A18101206EE7BA
:1046900070B504460D460CB9002070BDB5F5FA6F33
:1046A00001DD4FF4FA65B5F57A7F01DA4FF47A75DA
:1046B000A5812068808830B104280AD008280ED04F
:1046C0000C2818D111E0216808682946FDF72EFA58
:1046D00012E0216808682946FDF72AFA00BF216820
:1046E00008682946FDF726FA00BF216808682946B0
:1046F000FDF722FA00BF00BF00BF0120CDE710B5D3
:1047000004460CB9002010BD216808680121FCF79F
:1047100075FF2268918810680122FDF774F9012065
:10472000F1E710B504460CB9002010BD226891884D
:1047300010680022FDF767F90120F6E72DE9FC4734
:1047400004464726002020281CD003DC38B110285E
:104750002DD105E0402816D0602828D114E000BFF4
:10476000701C834991FBF0FA504601F07CFE07462D
:104770000022804B01F012FCCDE9000101F016FE91
:1047800085B215E000BF00BF701C48F6A04191FB48
:10479000F0FA504601F067FE07460022754B01F023
:1047A000FDFBCDE9000101F001FE85B200E000BF94
:1047B00000BF05EB85008000642190FBF1FA5046B4
:1047C00001F051FE074600226A4B01F0E7FBCDE9FC
:1047D000000101F0EBFD1FFA80F90020A0706020BD
:1047E000607000202070A080681EE0802681A4F800
:1047F0000A90BDE8FC8738B504460CB9002038BDE6
:104800006846FCF736F820688089ADF8000018206B
:104810008DF8030003208DF802002168886869463E
:10482000FBF79CFF6846FCF724F82068808AADF807
:10483000000018208DF8030003208DF80200216885
:1048400008696946FBF78AFF0120D8E730B58BB0CD
:1048500004460D4614B900200BB030BD46488442D2
:1048600003D14648444908600BE04548844204D1DE
:10487000424818304249086003E04048303041491E
:10488000086008A8FCF78AFEE888ADF824002889AB
:10489000ADF82000A878ADF82200A888ADF8260071
:1048A0002168086808A9FCF74DFB6846FCF792FEF2
:1048B0000020ADF80000ADF80200ADF80400CD20F6
:1048C000ADF80600216808686946FCF757FE04A8A1
:1048D000FCF76DFE6878ADF810006889ADF8160039
:1048E0000120ADF812000420ADF814000020ADF84E
:1048F0001C00ADF81E00287810B102280DD105E08B
:104900000020ADF81800ADF81A0007E00020ADF85F
:1049100018000820ADF81A0000E000BF00BF2068B2
:10492000808820B104280DD0082838D12CE02168D7
:10493000086804A9FCF743FB216808680821FCF714
:104940008DFF2DE02168086804A9FCF77AFB216837
:1049500008680821FCF78BFF22E00000E00300203C
:1049600054020020F0030020000400201004002066
:10497000401901000000E03F200400200C0200204C
:1049800030040020400400202168086804A9FCF7D6
:10499000A5FB216808680821FCF776FF00E000BF4E
:1049A00000BF216808680121FCF728FF2046FFF7B7
:1049B00022FFE98861812989A1816989E181A9882A
:1049C000218128782071012046E710B504460CB9F2
:1049D000002010BD216808680121FCF70FFE216846
:1049E00008680121FCF716FE2268918810680122F0
:1049F000FDF709F80120ECE710B504460CB90020DA
:104A000010BD2268918810680022FCF7FCFF01208D
:104A1000F6E72DE9F05F0446894614B90020BDE8A9
:104A2000F09FB9F1500F01DD4FF05009B9F1010FBE
:104A300001DA4FF00109608900FB09F0642190FB65
:104A4000F1FB584601F00FFD074600222E4B01F006
:104A5000A5FA054601F0AAFC1FFA80FAA4F80EA0F8
:104A60002068808830B104280AD008280ED00C288D
:104A700018D111E0216808685146FDF757F812E097
:104A8000216808685146FDF753F800BF216808689F
:104A90005146FDF74FF800BF216808685146FDF701
:104AA0004BF800BF00BF00BF0120B8E770B5044657
:104AB0000D460CB9002070BD25712068808830B18A
:104AC00004280AD008280ED00C2818D111E021683B
:104AD00008682946FCF744FF12E021680868294667
:104AE000FCF750FF0CE0216808682946FCF764FFDA
:104AF00006E0216808682946FCF778FF00E000BF5F
:104B000000BF0120D7E700000000E03F1FB54FF4D1
:104B10008050ADF80C0004208DF80F0003208DF8B4
:104B20000E0003A91148FBF719FE0020ADF80000A4
:104B30004FF6FF70ADF804000020ADF80600ADF8A8
:104B400002008DF8080069460948FCF7FBF90023CC
:104B50001A4619460648FCF7E8FD00210448FCF710
:104B6000E1FF01210248FCF749FD1FBD000801409B
:104B7000002C0140002101708170032141704FF62B
:104B8000FF7181800021C18041810A21018170472C
:104B900038B504460CB9002038BD6846FBF769FEFD
:104BA000206880892168C9890843ADF80000042085
:104BB0008DF8030003208DF802002168886869469B
:104BC000FBF7CCFD0120E7E770B586B004460D4643
:104BD00014B9002006B070BD5E48844203D15E481F
:104BE0005C49086011E05D48844204D15A481030A5
:104BF0005A49086009E024B95748203058490860EC
:104C000003E0554830305749086021680868FCF7D0
:104C1000C5F803A8FCF7C2FCA888ADF81000E88826
:104C2000ADF80C006889ADF81200A878ADF80E0058
:104C300000208DF814002168086803A9FCF782F9A8
:104C40002B781A46697826683068FCF78AFD684632
:104C5000FCF7B7FC2889ADF80800216808686946A8
:104C6000FCF703FC216808680121FCF78DFF002098
:104C70002168096888842046FFF78AFFA978A17116
:104C8000E988618128782071697861710120A1E744
:104C900010B504460CB9002010BD21680868012138
:104CA000FCF7ACFC2268918810680122FCF7ABFE8F
:104CB0002268D18810680122FCF7A5FE0120EBE7ED
:104CC00010B502460B4602B10BB9002010BD1068AA
:104CD0000068B0F1804F08D14FF08040808C01B265
:104CE00000204FF08044A0842BE0106800681E4C28
:104CF000A04208D11C482430008801B200201A4C80
:104D0000243420801DE010680068184CA04208D1AF
:104D100016482430008801B20020144C243420802E
:104D20000FE010680068124CA04208D110482430EF
:104D3000008801B200200E4C2434208001E00020C5
:104D4000C4E7002902DA4842988000E0998019609F
:104D50000120BBE750040020CC01002060040020AB
:104D6000700400208004002000040040000800407F
:104D7000000C00402DE9F04104460D461646002C7B
:104D800000DA6442002D00DA6D42B1B2FE48FFF74E
:104D90007FFC0A2094FBF0F087B23946FB48FFF70E
:104DA00038FE0A2095FBF0F087B23946F848FFF745
:104DB00030FEBDE8F0814FF42F70F6490968424299
:104DC000914202DA4142F34A1160F2490968814294
:104DD00001DDF0490860F04909684242914202DA77
:104DE0004142ED4A1160EC490968814201DDEA491E
:104DF0000860EA49096840F24C42914202DA1146E1
:104E0000E64A1160E549096840F26C72914202DDA0
:104E10001146E24A116070472DE9FC5F04460D46D9
:104E2000DF4E3746601BDF4908600846006801F026
:104E3000E3FD3946009001F0F7FD8246D949096843
:104E4000D94A1268881A01F0D7FD3146009001F066
:104E5000EBFD8346514601F051FD8146D348006881
:104E600001F0CAFD4946019001F048FD804601F07D
:104E7000A7FDCE490860CB480068CB490860CB4805
:104E80000068BDE8FC9F2DE9FC5F04460D46C44E5A
:104E90003746601BC64908600846006801F0ACFD53
:104EA0003946009001F0C0FD8246C1490968C14AF7
:104EB0001268881A01F0A0FD3146009001F0B4FD9F
:104EC0008346514601F01AFD8146BB48006801F057
:104ED00093FD4946019001F011FD804601F070FDFF
:104EE000B5490860B2480068B2490860B248006835
:104EF000BDE8FC9F2DE9F04F8BB083468A465046B3
:104F000001F0D0FCCDE9000100F0E4FF80464FF055
:104F10006042AA4B01F0D2FA064600224FF08043CD
:104F200001F0ECF84FF06042A54BCDE9020101F031
:104F3000E5F80022A34BCDE9040101F02FF8CDE9FB
:104F40000801584601F0AEFCCDE90601DDE9082371
:104F500001F0B4FA044601F029FA9B490860504672
:104F600001F0A0FCCDE9000100F0B4FF4FF0604279
:104F7000924BCDE9020101F0A1FA00224FF08043EB
:104F8000CDE9040101F0BAF84FF060428C4BCDE955
:104F9000060101F0B3F8064600228A4B01F08CFBB3
:104FA00080468946584601F07DFC044642464B4601
:104FB00001F084FACDE9080101F0F8F983490860AD
:104FC0008349504601F030FD0546824901F096FCC8
:104FD000044601F0F5FC714908600BB0BDE8F08FA4
:104FE0002DE9FF5F8246DFF8F0B17C4803907C48F2
:104FF0000290DAF8000001F036FA8046794A7A4BDE
:1050000001F05CFA06460F46DAF8040001F02BFACC
:1050100032463B46CDE9000100F0C0FF044600F0F7
:105020008BFF72490860724801687048006801F09F
:10503000C7FD0646029901F0F7FC04466B4801687B
:10504000584601F0F1FC0546214601F057FC69493C
:10505000086066480068664908606648006804B0F1
:10506000BDE8F09F2DE9F0478246BAF1000F02D16A
:105070000020BDE8F087DAF8001008680121FCF78D
:1050800086FD00287AD0DAF8001008680121FCF7C4
:105090008FFD5948FCF769FD58490860584959483F
:1050A000FFF70EFE58495948FFF70AFE584959487C
:1050B000FEF74EF85848007801280ED15748584955
:1050C00008605348FFF78CFF56490860084601689E
:1050D00053480068FFF70EFF08E000203A490860D7
:1050E0003A49086040F20E602C4908604E4800784A
:1050F000A0BB43488088262190FBF1F43248016828
:105100002046FFF7C0FE234908603F4880882621DB
:1051100090FBF1F42D4801682046FFF77DFE1E4903
:1051200008604FF480714148FBF7C5FB4FF40071F4
:105130003E48FBF7C2FB04213D48FBF7BCFB0221C4
:105140003B48FBF7BAFBFFF736FE144802681248EB
:10515000016810480068FFF70DFE0FE0FFE74FF40D
:1051600000713248FBF7A7FB02213148FBF7A3FB94
:1051700040F2726200210846FFF7FCFD2D480068EE
:105180001E490968084457E0E0030020200400207D
:1051900030040020C0000020C4000020C80000200F
:1051A000295C0F3EF800002000010020FC000020D8
:1051B000EC000020F4000020F0000020CEF7C33FF8
:1051C000F97EC23F0000F03FCC000020D00000205C
:1051D00033331E440080BB448FC2753C17B7D138AF
:1051E0007B14AE3D9A9999999999C93F080100207D
:1051F0001001002004010020002C0140E4000020E8
:105200009800002050040020A0000020600400202E
:10521000A8000020E4020020D40000200000C841C3
:10522000B0000020B8000020D50000200010014090
:10523000000C0140DC0000207B4908607B480088AE
:10524000401C7A49088008460088142817D17648FF
:10525000006801F01FF90646754A764B00F04EFFD4
:1052600004460022744B00F049FF804601F0CEF85E
:105270007249086000206C4908606C490880002170
:105280006F48FCF74FFC0120F3E610B56D48FFF7BF
:10529000E9FE10BD0021017041F2883141804721B3
:1052A000818001218171C17170477FB504460D462F
:1052B00014B9002004B070BD6248844202D1624833
:1052C0006049086021680868FBF768FD01A8FCF7E1
:1052D00065F96888401E80B2ADF80800A888ADF86E
:1052E00004002878ADF806000020ADF80A00216817
:1052F000086801A9FBF726FE206800798DF80000F8
:10530000A8798DF80100E8798DF8020001208DF868
:1053100003006846FCF759FE216808680121FCF784
:1053200033FC2168012208681146FCF782F968887D
:10533000401EE08028782071A98821810120B9E7EA
:1053400010B504460CB9002010BD21680868012181
:10535000FCF754F90120F7E708B56846FBF789FA2E
:105360004FF44070ADF8000010208DF8030069463E
:105370003648FBF7F3F94FF480713448FBF79BFA9A
:105380004FF400713148FBF796FA0620ADF80000A3
:1053900010208DF8030069462D48FBF7DFF9042142
:1053A0002B48FBF788FA02212948FBF784FA08BD4D
:1053B00010B50A20FEF718F920212448FBF761FAFE
:1053C00078B92448006808B9012000E0002021498C
:1053D00008602148007808B9012000E000201E493B
:1053E00008702020FDF707F910BD10B50A20FEF760
:1053F000FBF84FF400411948FBF743FA78B9184815
:10540000006808B9012000E000201549086015482F
:10541000007808B9012000E00020124908704FF41C
:105420000040FDF7E8F810BDDC000020E00000209F
:105430007B14AE47E17A743F00003440D80000206E
:10544000002C01409004002090000020001001403A
:10545000000C0140A0012142D400002000080140BE
:1054600088812242D500002008B54FF40040ADF8F5
:10547000000048208DF8030069463848FBF76EF9B4
:105480002020ADF8000048208DF80300694634481C
:10549000FBF764F908BD08B54FF48070ADF8000063
:1054A00010208DF8030003208DF8020069462B4878
:1054B000FBF754F94FF480712848FBF7FCF90420FE
:1054C000ADF8000069462748FBF748F90421254854
:1054D000FBF7F1F908BD0EB505210220FBF754FAE0
:1054E0002020019000208DF808000C208DF8090084
:1054F00001208DF80A0001A8FDF706F80F21002011
:10550000FBF742FA4FF40040019000208DF80800AC
:105510000C208DF8090001208DF80A0001A8FCF785
:10552000F3FF17208DF8000002208DF801008DF8A0
:10553000020001208DF803006846FCF746FD282094
:105540008DF8000002208DF801008DF80200012086
:105550008DF803006846FCF738FD0EBD00080140D9
:10556000001001400014014053EA020C00F0698071
:105570002DE9F04B4FF00006002B1FBFB3FA83F567
:1055800003FA05F424FA05F65E4012BF1643B2FA98
:1055900082F502FA05F4C5F120051EBF22FA05FCCA
:1055A00044EA0C04203556EA044C4FEA144418BF70
:1055B000641C4FF000084FF00009904271EB030C9F
:1055C00039D3002919BFB1FA81F701FA07F6B0FA09
:1055D00080F700FA07F6C7F120071EBF20FA07FC84
:1055E00046EA0C062037B6FBF4FCA7EB0507103F94
:1055F00007F01F0BCBF120060CFA0BFB2CFA06F67A
:1056000044BFB3460026202FA4BF5E464FF0000BD8
:105610005BEA060C08BF4FF0010B19EB0B09ABFB63
:10562000027C48EB0608C01B06FB02CC0BFB03CC3C
:1056300071EB0C01C1E70B46024641464846BDE806
:10564000F08B13B54FF000004FF00001AFF3008076
:10565000BDE81C407047032A40F2308010F0030C74
:1056600000F0158011F8013BBCF1020F624498BFB5
:1056700011F801CB00F8013B38BF11F8013BA2F152
:10568000040298BF00F801CB38BF00F8013B11F0CD
:10569000030300F03380083AC0F0088051F8043B5F
:1056A000083A51F804CBA0E80810F5E7121D5CBFDA
:1056B00051F8043B40F8043BAFF30080D20724BF0D
:1056C00011F8013B11F801CB48BF11F8012B24BFA1
:1056D00000F8013B00F801CB48BF00F8012B7047F0
:1056E00070477047704710B500F03AF8006810BD79
:1056F00010B5044600F034F8046010BD10B5203A2F
:10570000C0F00B80B1E81850203AA0E81850B1E87A
:105710001850A0E81850BFF4F5AF5FEA027C24BF30
:10572000B1E81850A0E8185044BF18C918C0BDE827
:1057300010405FEA827C24BF51F8043B40F8043BF0
:1057400008BF7047D20728BF31F8023B48BF11F8A5
:10575000012B28BF20F8023B48BF00F8012B7047FF
:10576000004870479C040020004870479C040020BB
:105770007546FFF7F9FFAE4605006946534620F02F
:105780000700854618B020B5FAF74EFDBDE8204069
:105790004FF000064FF000074FF000084FF0000BED
:1057A00021F00701AC46ACE8C009ACE8C009ACE8A0
:1057B000C009ACE8C0098D4670470446AFF30080CD
:1057C0002046FAF71CFD000001491820ABBEFEE799
:1057D000260002007047490050EAC12018BF04208B
:1057E0004A0D18BF40F0010040F2FF72B2EB515F6A
:1057F00008BF40F00200012808BF052070470000E4
:105800002DE9F74F144694B00021C4E9021115990F
:10581000079121F00045C9498D4206DC1599C4E97C
:10582000000117B00020BDE8F08FC549DFF814A3D0
:10583000A9423CDD0799C44E0029C44FC44A1599BA
:10584000534619DD00F044FF554506D0C14AC24B0E
:1058500000F03EFFC4E900010AE04FF0D352BE4B16
:1058600000F036FF32463B4600F032FFC4E900014B
:1058700017B00120BDE8F08F00F090FB554506D031
:10588000B44AB54B00F08AFBC4E900010AE04FF0CE
:10589000D352B14B00F082FB32463B4600F07EFB18
:1058A000C4E9000117B04FF0FF30BDE8F08FAB49FD
:1058B000A942159978DB21F0004183468846A84A21
:1058C000A84B00F0FBFD0022A74B00F067FB00F0A7
:1058D0006DFD099000F0C7FD06460F469C4A5346F1
:1058E00000F0ECFD43465A4600F0E6FE80468A464C
:1058F000984A994B3046394600F0E0FD2A0D0125C3
:105900000B924246534600F0D7FE032DC4E9000136
:1059100039D00B98C1F30A51401A05EB45111139E2
:10592000814230DA9148C346784400EB0510CDF847
:105930000CA00C90D0E900233046394600F0BEFDA3
:1059400002460B46049106905846039900F0C0FEAB
:1059500080468A4602460B465846039900F0B8FE38
:10596000049B069A00F0B4FE83460C9803913946D6
:10597000D0E90223304600F0A1FD5A46039B00F017
:10598000A7FE6D1CBDE707980028A2BF099817B0B5
:10599000BDE8F08F616881F000416160099817B03F
:1059A0004042BDE8F08FFFE784461598C1F313012C
:1059B000C0F30A50A0F2F5304FEA601800F01F065D
:1059C000C6F12000139000200690079041F4801E3D
:1059D00005206D4676B1664A08EB00017A4452F81C
:1059E000213002EB8101B3404A68139922FA01F198
:1059F000194305E05F4908EB0002794451F8221091
:105A0000A1FB0E27A1FB0C131A449A4234BF0123B9
:105A1000002303EB070A05EB8003D3E901B70F442A
:105A20008F4234BF0121002193448B4411B193452F
:105A300002D903E0934501D2012100E00021C3E92E
:105A400001B7514445F82010011EA0F10100C1DC4E
:105A50000298059F00F10050800F12900298DDE936
:105A60000356800000F0FFFC834628460D9100F0AD
:105A700011FD6FF01D0201F04AF9CDE90E0130462B
:105A800000F008FD6FF03D0201F041F980468A46C2
:105A9000384600F0FFFC6FF05D0201F038F9074670
:105AA00042465346119100F079FADDE90E2300F0E9
:105AB00075FA5A460D9B00F071FA00250E465A46BB
:105AC00028460D9B00F004FEDDE90E2300F000FEE9
:105AD0004246534600F0FCFD3A46119B00F0ECFDB7
